:100BAA00446F6F72206973204C6F636B65640045F4
:100BBA006E7465722050617373776F72643A005075
:100BCA00617373776F7264204D6174636865640042
:100BDA0057726F6E672050617373776F726400503B
:100BEA006C656173652054727920416761696E0092
:100BFA004F70656E696E6720446F6F722E2E2E00DD
:100C0A00436C6F73696E6720446F6F722E2E2E00CD
:080D1C000608353433323100C2
:1009B400E4F5A07590FF120C997BFF7A0B79AA12CB
:1009C4000C497F647E00120C237F01120CC47F0249
:1009D400120CC47BFF7A0B79B9120C497FC0120C3C
:1009E400C4E4F513F514120D118F15740E2514F8C3
:1009F400A6157F647E00120C230514E5147002050D
:100A040013C39405E5136480948040DA7F01120CCB
:100A1400C47F02120CC478087C007D007B007A003D
:100A2400790E120997EF7BFF701D7A0B79C9120CAE
:100A3400497FC87E00120C23120D007F587E0212DB
:100A44000C23120C73802B7A0B79DA120C49120CDA
:100A5400D67FC87E00120C237F01120CC47F0212C1
:100A64000CC47BFF7A0B79E9120C497FC87E001213
:0C0A74000C237F01120CC47F02120CC482
:010A80002253
:100C99007F38120CC4120C1F7F01120CC4120C1FD6
:100CA9007F80120CC4120C1F7F0E120CC47F027EAF
:040CB90000020C2306
:090C1A007F2A120CEE7F027E001D
:100C2300E4FDFCC3ED9FEE6480F8EC6480985015FE
:100C3300E4FBFA0BBB00010ABA04F8BBFBF50DBDDC
:050C430000010C80DE41
:010C48002289
:070CBD007F01120CC47F024D
:100CC4008FA0C2B4C2B5D2B67F017E00120C23C27B
:020CD400B62246
:100C49008B168A178918AB16AA17A918120800FF5C
:100C59006017120CEE7F0A7E00120C23740125180E
:0A0C6900F518E43517F51780DD22B9
:100CEE008FA0D2B4C2B5D2B67F017E00120C23C241
:020CFE00B6221C
:100CD600900000D2977F647E00120C23C297A3E592
:070CE600826405458370ECF8
:010CED0022E4
:100D0000120CBD7BFF7A0B79FA120C49D2B0C2B13A
:010D100022C0
:100C7300120CBD7BFF7A0C790A120C49C2B0C2B1C7
:100C83007F147E00120C23C2B0D2B17FF40E120C7B
:060C930023C2B0C2B12231
:0A0D11007F61BF6105120A8180F8BE
:010D1B0022B5
:100A8100D296D295D294C293C292C291C290C29090
:100A9100D293D292D291209406120C1A7F31222045
:100AA1009506120C1A7F3222209606120C1A7F33F9
:100AB10022C291D293D292D290209406120C1A7F24
:100AC1003422209506120C1A7F3522209606120C2C
:100AD1001A7F3622C292D293D291D29020940612DA
:100AE1000C1A7F3722209506120C1A7F3822209685
:100AF10006120C1A7F3922C293D292D291D290203F
:100B01009406120C1A7F2A22209506120C1A7F30A5
:0D0B110022209606120C1A7F23227F6122FB
:03000000020B1ED2
:0C0B1E00787FE4F6D8FD758118020B65A5
:10080000BB010689828A83E0225002E722BBFE02F6
:09081000E32289828A83E4932229
:10081900E3F5F009E208B5F06D606B80F3E3F5F0FC
:1008290009E608B5F060605E80F387F009E608B56F
:10083900F054605280F487F009E208B5F048604648
:1008490080F488828C8387F009E0A3B5F03860369C
:1008590080F488828C8387F009E493A3B5F027603C
:100869002580F388828C83E3F5F009E0A3B5F016BF
:10087900601480F388828C83E3F5F009E493A3B5CF
:10088900F004600280F2020944808580E7808E804E
:10089900D2803C8015806C807E809B80B5808B8067
:1008A900A1804F8070803A02095089828A83ECFACC
:1008B900E493F5F0A3C8C582C8CCC583CCE493A35F
:1008C900C8C582C8CCC583CCB5F070606E80E1899B
:1008D900828A83E493F5F0A3E208B5F05E605C8058
:1008E900F289828A83E0F5F0A3E608B5F04D604B02
:1008F90080F389828A83E0F5F0A3E208B5F03C60D1
:100909003A80F389828A83E493F5F0A3E608B5F087
:100919002A602880F2805389828A83ECFAE493F56D
:10092900F0A3C8C582C8CCC583CCE0A3C8C582C81A
:10093900CCC583CCB5F004600280E27FFFB5F0023C
:100949000F2240027F012289828A83ECFAE0F5F0C6
:10095900A3C8C582C8CCC583CCE0A3C8C582C8CC0E
:10096900C583CCB5F0D560D380E389828A83ECFA5C
:10097900E0F5F0A3C8C582C8CCC583CCE493A3C86D
:10098900C582C8CCC583CCB5F0B160AF80E288F030
:10099900ED2402B4040050A3F582EB2402B4040050
:0B09A90050992323458223900892738D
:100B2A000209B4E493A3F8E493A34003F68001F224
:100B3A0008DFF48029E493A3F85407240CC8C333CC
:100B4A00C4540F4420C8834004F456800146F6DF9B
:100B5A00E4800B0102040810204080900D1CE47E02
:100B6A00019360BCA3FF543F30E509541FFEE49390
:100B7A00A360010ECF54C025E060A840B8E493A357
:100B8A00FAE493A3F8E493A3C8C582C8CAC583CA82
:100B9A00F0A3C8C582C8CAC583CADFE9DEE780BE3A
:010D240000CE
:00000001FF
